{
  "contractName": "Pausable",
  "abi": [
    {
      "constant": true,
      "inputs": [],
      "name": "owner",
      "outputs": [
        {
          "name": "",
          "type": "address"
        }
      ],
      "payable": false,
      "stateMutability": "view",
      "type": "function"
    },
    {
      "constant": false,
      "inputs": [
        {
          "name": "newOwnerAddress",
          "type": "address"
        }
      ],
      "name": "transferOwnership",
      "outputs": [],
      "payable": false,
      "stateMutability": "nonpayable",
      "type": "function"
    },
    {
      "inputs": [],
      "payable": false,
      "stateMutability": "nonpayable",
      "type": "constructor"
    },
    {
      "anonymous": false,
      "inputs": [
        {
          "indexed": true,
          "name": "account",
          "type": "address"
        }
      ],
      "name": "Paused",
      "type": "event"
    },
    {
      "anonymous": false,
      "inputs": [
        {
          "indexed": true,
          "name": "account",
          "type": "address"
        }
      ],
      "name": "UnPaused",
      "type": "event"
    },
    {
      "anonymous": false,
      "inputs": [
        {
          "indexed": true,
          "name": "previousOwner",
          "type": "address"
        },
        {
          "indexed": true,
          "name": "newOwnerAddress",
          "type": "address"
        }
      ],
      "name": "TransferredOwnership",
      "type": "event"
    },
    {
      "constant": false,
      "inputs": [
        {
          "name": "state",
          "type": "bool"
        }
      ],
      "name": "setPaused",
      "outputs": [],
      "payable": false,
      "stateMutability": "nonpayable",
      "type": "function"
    }
  ],
  "bytecode": "0x608060405234801561001057600080fd5b50336000806101000a81548173ffffffffffffffffffffffffffffffffffffffff021916908373ffffffffffffffffffffffffffffffffffffffff16021790555060008060146101000a81548160ff0219169083151502179055506105818061007a6000396000f3fe608060405234801561001057600080fd5b506004361061005e576000357c01000000000000000000000000000000000000000000000000000000009004806316c38b3c146100635780638da5cb5b14610093578063f2fde38b146100dd575b600080fd5b6100916004803603602081101561007957600080fd5b81019080803515159060200190929190505050610121565b005b61009b610302565b604051808273ffffffffffffffffffffffffffffffffffffffff1673ffffffffffffffffffffffffffffffffffffffff16815260200191505060405180910390f35b61011f600480360360208110156100f357600080fd5b81019080803573ffffffffffffffffffffffffffffffffffffffff16906020019092919050505061032b565b005b6000809054906101000a900473ffffffffffffffffffffffffffffffffffffffff1673ffffffffffffffffffffffffffffffffffffffff163373ffffffffffffffffffffffffffffffffffffffff161415156101e5576040517f08c379a00000000000000000000000000000000000000000000000000000000081526004018080602001828103825260168152602001807f796f755f6172655f6e6f745f617574686f72697a65640000000000000000000081525060200191505060405180910390fd5b801515600060149054906101000a900460ff16151514151515610253576040517f08c379a00000000000000000000000000000000000000000000000000000000081526004018080602001828103825260248152602001806105326024913960400191505060405180910390fd5b80600060146101000a81548160ff02191690831515021790555080156102bb573373ffffffffffffffffffffffffffffffffffffffff167f62e78cea01bee320cd4e420270b5ea74000d11b0c9f74754ebdbfc544b05a25860405160405180910390a26102ff565b3373ffffffffffffffffffffffffffffffffffffffff167fff2b959f2bcdb44c7ecb4b16dae055431019d7350607125cfc2b74a06632c90e60405160405180910390a25b50565b60008060009054906101000a900473ffffffffffffffffffffffffffffffffffffffff16905090565b6000809054906101000a900473ffffffffffffffffffffffffffffffffffffffff1673ffffffffffffffffffffffffffffffffffffffff163373ffffffffffffffffffffffffffffffffffffffff161415156103ef576040517f08c379a00000000000000000000000000000000000000000000000000000000081526004018080602001828103825260168152602001807f796f755f6172655f6e6f745f617574686f72697a65640000000000000000000081525060200191505060405180910390fd5b600073ffffffffffffffffffffffffffffffffffffffff168173ffffffffffffffffffffffffffffffffffffffff1614151515610494576040517f08c379a000000000000000000000000000000000000000000000000000000000815260040180806020018281038252600f8152602001807f696e76616c69645f61646472657373000000000000000000000000000000000081525060200191505060405180910390fd5b806000806101000a81548173ffffffffffffffffffffffffffffffffffffffff021916908373ffffffffffffffffffffffffffffffffffffffff1602179055508073ffffffffffffffffffffffffffffffffffffffff163373ffffffffffffffffffffffffffffffffffffffff167f850b3df64837d7d518b45f5aa64d104652c3b80eb5b34a8e3d9eb666cb7cdea560405160405180910390a35056fe6e65775f73746174655f69735f7468655f73616d655f61735f7468655f6f6c645f6f6e65a165627a7a72305820a5dc354fb99c45376d6983f67fa4ca1d70d14c3216f2d9eac6118a481097f7970029",
  "source": "pragma solidity ^0.5.0;\n\nimport 'openzeppelin-solidity/contracts/utils/Address.sol';\nimport 'openzeppelin-solidity/contracts/drafts/Counters.sol';\nimport 'openzeppelin-solidity/contracts/math/SafeMath.sol';\nimport 'openzeppelin-solidity/contracts/token/ERC721/IERC721Receiver.sol';\nimport \"./Oraclize.sol\";\n\ncontract Ownable {\n    address private _ownerAddress;\n\n    function owner() public view returns (address) {\n        return _ownerAddress;\n    }\n\n    constructor() public {\n        _ownerAddress = msg.sender;\n    }\n\n    modifier onlyOwner {\n        require(msg.sender == _ownerAddress, \"you_are_not_authorized\");\n        _;\n    }\n    function transferOwnership(address newOwnerAddress) public onlyOwner {\n        require(newOwnerAddress != address(0), \"invalid_address\");\n        _ownerAddress = newOwnerAddress;\n        emit TransferredOwnership(msg.sender, newOwnerAddress);\n    }\n\n    event TransferredOwnership(address indexed previousOwner, address indexed newOwnerAddress);\n}\n\ncontract Pausable is Ownable {\n    bool private _paused;\n\n    function setPaused(bool state) public onlyOwner {\n        require(_paused != state, \"new_state_is_the_same_as_the_old_one\");\n        _paused = state;\n        if (state) {\n            emit Paused(msg.sender);\n        } else {\n            emit UnPaused(msg.sender);\n        }\n    }\n\n    constructor() public {\n        _paused = false;\n    }\n    modifier whenNotPaused() {\n        require(!_paused, \"currently_paused\");\n        _;\n    }\n\n    modifier paused() {\n        require(_paused, \"not_paused\");\n        _;\n    }\n\n    event Paused(address indexed account);\n    event UnPaused(address indexed account);\n}\n\ncontract ERC165 {\n    bytes4 private constant _INTERFACE_ID_ERC165 = 0x01ffc9a7;\n   \n    mapping(bytes4 => bool) private _supportedInterfacesMap;\n\n    constructor () internal {\n        _registerInterface(_INTERFACE_ID_ERC165);\n    }\n\n    function supportsInterface(bytes4 interfaceId) external view returns (bool) {\n        return _supportedInterfacesMap[interfaceId];\n    }\n\n    function _registerInterface(bytes4 interfaceId) internal {\n        require(interfaceId != 0xffffffff);\n        _supportedInterfacesMap[interfaceId] = true;\n    }\n}\n\ncontract ERC721 is Pausable, ERC165 {\n\n    event Transfer(address indexed from, address indexed toAddress, uint256 indexed tokenId);\n\n    event Approval(address indexed owner, address indexed isApproved, uint256 indexed tokenId);\n\n    event ApprovalForAll(address indexed owner, address indexed operator, bool isApproved);\n\n    using SafeMath for uint256;\n    using Address for address;\n    using Counters for Counters.Counter;\n\n    bytes4 private constant _ERC721_RECEIVED = 0x150b7a02;\n\n    mapping(uint256 => address) private _tokenOwnerMap;\n    mapping(uint256 => address) private _tokenApprovalsMap;\n    mapping(address => Counters.Counter) private _ownedTokensCountMap;\n    mapping(address => mapping(address => bool)) private _operatorApprovalsMap;\n    bytes4 private constant _INTERFACE_ID_ERC721 = 0x80ac58cd;\n\n    constructor () public {\n        _registerInterface(_INTERFACE_ID_ERC721);\n    }\n\n    function balanceOf(address ownerAddr) public view returns (uint256) {\n        return _ownedTokensCountMap[ownerAddr].current();\n    }\n\n    function ownerOf(uint256 tokenId) public view returns (address) {\n        return _tokenOwnerMap[tokenId];\n    }\n\n    function approve(address toAddress, uint256 tokenId) public {\n        require(toAddress != msg.sender, \"you_can_transfer_your_token_to_yourself\");\n        require(this.ownerOf(tokenId) == msg.sender, \"you_are_not_the_owner_of_this_token\");\n        _tokenApprovalsMap[tokenId] = toAddress;\n        emit Approval(_tokenOwnerMap[tokenId], toAddress, tokenId);\n    }\n\n    function getApproved(uint256 tokenId) public view returns (address) {\n        return _tokenApprovalsMap[tokenId];\n    }\n\n    function setApprovalForAll(address toAddress, bool isApproved) public {\n        require(toAddress != msg.sender);\n        _operatorApprovalsMap[msg.sender][toAddress] = isApproved;\n        emit ApprovalForAll(msg.sender, toAddress, isApproved);\n    }\n\n    function isApprovedForAll(address owner, address operator) public view returns (bool) {\n        return _operatorApprovalsMap[owner][operator];\n    }\n\n    function transferFrom(address from, address toAddress, uint256 tokenId) public {\n        require(_isApprovedOrOwner(msg.sender, tokenId));\n\n        _transferFrom(from, toAddress, tokenId);\n    }\n\n    function safeTransferFrom(address from, address toAddress, uint256 tokenId) public {\n        safeTransferFrom(from, toAddress, tokenId, \"\");\n    }\n\n    function safeTransferFrom(address from, address toAddress, uint256 tokenId, bytes memory _data) public {\n        transferFrom(from, toAddress, tokenId);\n        require(_checkOnERC721Received(from, toAddress, tokenId, _data));\n    }\n\n    function _exists(uint256 tokenId) internal view returns (bool) {\n        address owner = _tokenOwnerMap[tokenId];\n        return owner != address(0);\n    }\n\n    function _isApprovedOrOwner(address spender, uint256 tokenId) internal view returns (bool) {\n        address owner = ownerOf(tokenId);\n        return (spender == owner || getApproved(tokenId) == spender || isApprovedForAll(owner, spender));\n    }\n\n    function _mint(address toAddress, uint256 tokenId) internal {\n        if (_exists(tokenId) || toAddress == address(0)) revert();\n        _tokenOwnerMap[tokenId] = toAddress;\n        _ownedTokensCountMap[toAddress].increment();\n        emit Transfer(address(0), toAddress, tokenId);\n    }\n\n    function _transferFrom(address from, address toAddress, uint256 tokenId) internal {\n        require(from == ownerOf(tokenId), \"unauthorized\");\n        require(toAddress != address(0), \"invalid_address\");\n        _clearApproval(tokenId);\n        _ownedTokensCountMap[from].decrement();\n        _ownedTokensCountMap[toAddress].increment();\n        _tokenOwnerMap[tokenId] = toAddress;\n\n        emit Transfer(from, toAddress, tokenId);\n    }\n\n    function _checkOnERC721Received(address from, address toAddress, uint256 tokenId, bytes memory _data)\n    internal returns (bool) {\n        if (!toAddress.isContract()) {\n            return true;\n        }\n\n        bytes4 retval = IERC721Receiver(toAddress).onERC721Received(msg.sender, from, tokenId, _data);\n        return (retval == _ERC721_RECEIVED);\n    }\n\n    function _clearApproval(uint256 tokenId) private {\n        if (_tokenApprovalsMap[tokenId] != address(0)) {\n            _tokenApprovalsMap[tokenId] = address(0);\n        }\n    }\n}\n\ncontract ERC721Enumerable is ERC165, ERC721 {\n    mapping(address => uint256[]) private _ownedTokensMap;\n    mapping(uint256 => uint256) private _ownedTokensIndexMap;\n    uint256[] private _allTokens;\n\n    mapping(uint256 => uint256) private _allTokensIndexMap;\n\n    bytes4 private constant _INTERFACE_ID_ERC721_ENUMERABLE = 0x780e9d63;\n    constructor () public {\n        _registerInterface(_INTERFACE_ID_ERC721_ENUMERABLE);\n    }\n\n    function tokenOfOwnerByIndex(address owner, uint256 index) public view returns (uint256) {\n        require(index < balanceOf(owner));\n        return _ownedTokensMap[owner][index];\n    }\n\n    function totalSupply() public view returns (uint256) {\n        return _allTokens.length;\n    }\n\n    function tokenByIndex(uint256 index) public view returns (uint256) {\n        require(index < totalSupply());\n        return _allTokens[index];\n    }\n\n    function _transferFrom(address from, address toAddress, uint256 tokenId) internal {\n        super._transferFrom(from, toAddress, tokenId);\n\n        _removeTokenFromOwnerEnumeration(from, tokenId);\n\n        _addTokenToOwnerEnumeration(toAddress, tokenId);\n    }\n\n    function _mint(address toAddress, uint256 tokenId) internal {\n        super._mint(toAddress, tokenId);\n\n        _addTokenToOwnerEnumeration(toAddress, tokenId);\n\n        _addTokenToAllTokensEnumeration(tokenId);\n    }\n\n    function _tokensOfOwner(address owner) internal view returns (uint256[] storage) {\n        return _ownedTokensMap[owner];\n    }\n\n    function _addTokenToOwnerEnumeration(address toAddress, uint256 tokenId) private {\n        _ownedTokensIndexMap[tokenId] = _ownedTokensMap[toAddress].length;\n        _ownedTokensMap[toAddress].push(tokenId);\n    }\n\n    function _addTokenToAllTokensEnumeration(uint256 tokenId) private {\n        _allTokensIndexMap[tokenId] = _allTokens.length;\n        _allTokens.push(tokenId);\n    }\n\n    function _removeTokenFromOwnerEnumeration(address from, uint256 tokenId) private {\n        uint256 lastTokenIndex = _ownedTokensMap[from].length.sub(1);\n        uint256 tokenIndex = _ownedTokensIndexMap[tokenId];\n\n        if (tokenIndex != lastTokenIndex) {\n            uint256 lastTokenId = _ownedTokensMap[from][lastTokenIndex];\n\n            _ownedTokensMap[from][tokenIndex] = lastTokenId;\n            _ownedTokensIndexMap[lastTokenId] = tokenIndex;\n        }\n\n        _ownedTokensMap[from].length--;\n    }\n\n    function _removeTokenFromAllTokensEnumeration(uint256 tokenId) private {\n        uint256 lastTokenIndex = _allTokens.length.sub(1);\n        uint256 tokenIndex = _allTokensIndexMap[tokenId];\n\n        uint256 lastTokenId = _allTokens[lastTokenIndex];\n\n        _allTokens[tokenIndex] = lastTokenId;\n        _allTokensIndexMap[lastTokenId] = tokenIndex;\n\n        _allTokens.length--;\n        _allTokensIndexMap[tokenId] = 0;\n    }\n}\n\ncontract ERC721Metadata is ERC721Enumerable, usingOraclize {\n\n    string private _name;\n    string private _symbol;\n    string private _baseTokenURI;\n\n    mapping(uint256 => string) private _tokenURIs;\n\n    bytes4 private constant _INTERFACE_ID_ERC721_METADATA = 0x5b5e139f;\n\n    constructor (string memory name, string memory symbol, string memory baseTokenURI) public {\n        _name = name;\n        _symbol = symbol;\n        _baseTokenURI = baseTokenURI;\n\n        _registerInterface(_INTERFACE_ID_ERC721_METADATA);\n    }\n\n    function name() public view returns (string memory) {\n        return _name;\n    }\n\n    function symbol() public view returns (string memory) {\n        return _symbol;\n    }\n\n    function baseTokenURI() public view returns (string memory) {\n        return _baseTokenURI;\n    }\n\n    function tokenURI(uint256 tokenId) external view returns (string memory) {\n        require(_exists(tokenId));\n        return _tokenURIs[tokenId];\n    }\n\n\n    function _setTokenURI(uint256 tokenId) internal {\n        require(_exists(tokenId), \"Token does not exist\");\n        _tokenURIs[tokenId] = strConcat(_baseTokenURI, uint2str(tokenId));\n    }\n}\n\ncontract GRToken is ERC721Metadata(\"Great Token\", \"GRT\", \"https://s3-us-west-2.amazonaws.com/udacity-blockchain/capstone/\") {\n    function mint(address toAddress, uint256 tokenId) public onlyOwner returns (bool) {\n        _mint(toAddress, tokenId);\n        _setTokenURI(tokenId);\n\n        return true;\n    }\n}\n",
  "sourcePath": "/Users/parvezhassan/Downloads/Udacity/Blockchain-Capstone/eth-contracts/contracts/ERC721Mintable.sol",
  "compiler": {
    "name": "solc",
    "version": "0.5.5+commit.47a71e8f.Emscripten.clang"
  },
  "schemaVersion": "3.0.1",
  "updatedAt": "2022-06-01T15:31:04.228Z",
  "devdoc": {
    "methods": {}
  },
  "userdoc": {
    "methods": {}
  }
}