{
  "contractName": "SolnSquareVerifier",
  "abi": [
    {
      "constant": true,
      "inputs": [
        {
          "name": "interfaceId",
          "type": "bytes4"
        }
      ],
      "name": "supportsInterface",
      "outputs": [
        {
          "name": "",
          "type": "bool"
        }
      ],
      "payable": false,
      "stateMutability": "view",
      "type": "function",
      "signature": "0x01ffc9a7"
    },
    {
      "constant": true,
      "inputs": [],
      "name": "name",
      "outputs": [
        {
          "name": "",
          "type": "string"
        }
      ],
      "payable": false,
      "stateMutability": "view",
      "type": "function",
      "signature": "0x06fdde03"
    },
    {
      "constant": true,
      "inputs": [
        {
          "name": "tokenId",
          "type": "uint256"
        }
      ],
      "name": "getApproved",
      "outputs": [
        {
          "name": "",
          "type": "address"
        }
      ],
      "payable": false,
      "stateMutability": "view",
      "type": "function",
      "signature": "0x081812fc"
    },
    {
      "constant": false,
      "inputs": [
        {
          "name": "toAddress",
          "type": "address"
        },
        {
          "name": "tokenId",
          "type": "uint256"
        }
      ],
      "name": "approve",
      "outputs": [],
      "payable": false,
      "stateMutability": "nonpayable",
      "type": "function",
      "signature": "0x095ea7b3"
    },
    {
      "constant": false,
      "inputs": [
        {
          "name": "state",
          "type": "bool"
        }
      ],
      "name": "setPaused",
      "outputs": [],
      "payable": false,
      "stateMutability": "nonpayable",
      "type": "function",
      "signature": "0x16c38b3c"
    },
    {
      "constant": true,
      "inputs": [],
      "name": "totalSupply",
      "outputs": [
        {
          "name": "",
          "type": "uint256"
        }
      ],
      "payable": false,
      "stateMutability": "view",
      "type": "function",
      "signature": "0x18160ddd"
    },
    {
      "constant": false,
      "inputs": [
        {
          "name": "from",
          "type": "address"
        },
        {
          "name": "toAddress",
          "type": "address"
        },
        {
          "name": "tokenId",
          "type": "uint256"
        }
      ],
      "name": "transferFrom",
      "outputs": [],
      "payable": false,
      "stateMutability": "nonpayable",
      "type": "function",
      "signature": "0x23b872dd"
    },
    {
      "constant": false,
      "inputs": [
        {
          "name": "_myid",
          "type": "bytes32"
        },
        {
          "name": "_result",
          "type": "string"
        }
      ],
      "name": "__callback",
      "outputs": [],
      "payable": false,
      "stateMutability": "nonpayable",
      "type": "function",
      "signature": "0x27dc297e"
    },
    {
      "constant": true,
      "inputs": [
        {
          "name": "owner",
          "type": "address"
        },
        {
          "name": "index",
          "type": "uint256"
        }
      ],
      "name": "tokenOfOwnerByIndex",
      "outputs": [
        {
          "name": "",
          "type": "uint256"
        }
      ],
      "payable": false,
      "stateMutability": "view",
      "type": "function",
      "signature": "0x2f745c59"
    },
    {
      "constant": false,
      "inputs": [
        {
          "name": "_myid",
          "type": "bytes32"
        },
        {
          "name": "_result",
          "type": "string"
        },
        {
          "name": "_proof",
          "type": "bytes"
        }
      ],
      "name": "__callback",
      "outputs": [],
      "payable": false,
      "stateMutability": "nonpayable",
      "type": "function",
      "signature": "0x38bbfa50"
    },
    {
      "constant": false,
      "inputs": [
        {
          "name": "from",
          "type": "address"
        },
        {
          "name": "toAddress",
          "type": "address"
        },
        {
          "name": "tokenId",
          "type": "uint256"
        }
      ],
      "name": "safeTransferFrom",
      "outputs": [],
      "payable": false,
      "stateMutability": "nonpayable",
      "type": "function",
      "signature": "0x42842e0e"
    },
    {
      "constant": true,
      "inputs": [
        {
          "name": "index",
          "type": "uint256"
        }
      ],
      "name": "tokenByIndex",
      "outputs": [
        {
          "name": "",
          "type": "uint256"
        }
      ],
      "payable": false,
      "stateMutability": "view",
      "type": "function",
      "signature": "0x4f6ccce7"
    },
    {
      "constant": true,
      "inputs": [
        {
          "name": "a",
          "type": "uint256[2]"
        },
        {
          "name": "b",
          "type": "uint256[2][2]"
        },
        {
          "name": "c",
          "type": "uint256[2]"
        },
        {
          "name": "input",
          "type": "uint256[2]"
        }
      ],
      "name": "verifyTx",
      "outputs": [
        {
          "name": "r",
          "type": "bool"
        }
      ],
      "payable": false,
      "stateMutability": "view",
      "type": "function",
      "signature": "0x621e9ec0"
    },
    {
      "constant": true,
      "inputs": [
        {
          "name": "tokenId",
          "type": "uint256"
        }
      ],
      "name": "ownerOf",
      "outputs": [
        {
          "name": "",
          "type": "address"
        }
      ],
      "payable": false,
      "stateMutability": "view",
      "type": "function",
      "signature": "0x6352211e"
    },
    {
      "constant": true,
      "inputs": [
        {
          "name": "ownerAddr",
          "type": "address"
        }
      ],
      "name": "balanceOf",
      "outputs": [
        {
          "name": "",
          "type": "uint256"
        }
      ],
      "payable": false,
      "stateMutability": "view",
      "type": "function",
      "signature": "0x70a08231"
    },
    {
      "constant": true,
      "inputs": [],
      "name": "owner",
      "outputs": [
        {
          "name": "",
          "type": "address"
        }
      ],
      "payable": false,
      "stateMutability": "view",
      "type": "function",
      "signature": "0x8da5cb5b"
    },
    {
      "constant": true,
      "inputs": [],
      "name": "symbol",
      "outputs": [
        {
          "name": "",
          "type": "string"
        }
      ],
      "payable": false,
      "stateMutability": "view",
      "type": "function",
      "signature": "0x95d89b41"
    },
    {
      "constant": false,
      "inputs": [
        {
          "name": "toAddress",
          "type": "address"
        },
        {
          "name": "isApproved",
          "type": "bool"
        }
      ],
      "name": "setApprovalForAll",
      "outputs": [],
      "payable": false,
      "stateMutability": "nonpayable",
      "type": "function",
      "signature": "0xa22cb465"
    },
    {
      "constant": false,
      "inputs": [
        {
          "name": "from",
          "type": "address"
        },
        {
          "name": "toAddress",
          "type": "address"
        },
        {
          "name": "tokenId",
          "type": "uint256"
        },
        {
          "name": "_data",
          "type": "bytes"
        }
      ],
      "name": "safeTransferFrom",
      "outputs": [],
      "payable": false,
      "stateMutability": "nonpayable",
      "type": "function",
      "signature": "0xb88d4fde"
    },
    {
      "constant": true,
      "inputs": [
        {
          "name": "tokenId",
          "type": "uint256"
        }
      ],
      "name": "tokenURI",
      "outputs": [
        {
          "name": "",
          "type": "string"
        }
      ],
      "payable": false,
      "stateMutability": "view",
      "type": "function",
      "signature": "0xc87b56dd"
    },
    {
      "constant": true,
      "inputs": [],
      "name": "baseTokenURI",
      "outputs": [
        {
          "name": "",
          "type": "string"
        }
      ],
      "payable": false,
      "stateMutability": "view",
      "type": "function",
      "signature": "0xd547cfb7"
    },
    {
      "constant": true,
      "inputs": [
        {
          "name": "owner",
          "type": "address"
        },
        {
          "name": "operator",
          "type": "address"
        }
      ],
      "name": "isApprovedForAll",
      "outputs": [
        {
          "name": "",
          "type": "bool"
        }
      ],
      "payable": false,
      "stateMutability": "view",
      "type": "function",
      "signature": "0xe985e9c5"
    },
    {
      "constant": false,
      "inputs": [
        {
          "name": "newOwnerAddress",
          "type": "address"
        }
      ],
      "name": "transferOwnership",
      "outputs": [],
      "payable": false,
      "stateMutability": "nonpayable",
      "type": "function",
      "signature": "0xf2fde38b"
    },
    {
      "anonymous": false,
      "inputs": [
        {
          "indexed": false,
          "name": "key",
          "type": "bytes32"
        },
        {
          "indexed": false,
          "name": "userAddr",
          "type": "address"
        },
        {
          "indexed": false,
          "name": "token_id",
          "type": "uint256"
        }
      ],
      "name": "SolutionAdded",
      "type": "event",
      "signature": "0xd54d9ef5d3801dc9b4c79ac9cb0d5ed3b9c83d168bd86bb6e937ca7df70392da"
    },
    {
      "anonymous": false,
      "inputs": [
        {
          "indexed": true,
          "name": "from",
          "type": "address"
        },
        {
          "indexed": true,
          "name": "toAddress",
          "type": "address"
        },
        {
          "indexed": true,
          "name": "tokenId",
          "type": "uint256"
        }
      ],
      "name": "Transfer",
      "type": "event",
      "signature": "0xddf252ad1be2c89b69c2b068fc378daa952ba7f163c4a11628f55a4df523b3ef"
    },
    {
      "anonymous": false,
      "inputs": [
        {
          "indexed": true,
          "name": "owner",
          "type": "address"
        },
        {
          "indexed": true,
          "name": "isApproved",
          "type": "address"
        },
        {
          "indexed": true,
          "name": "tokenId",
          "type": "uint256"
        }
      ],
      "name": "Approval",
      "type": "event",
      "signature": "0x8c5be1e5ebec7d5bd14f71427d1e84f3dd0314c0f7b2291e5b200ac8c7c3b925"
    },
    {
      "anonymous": false,
      "inputs": [
        {
          "indexed": true,
          "name": "owner",
          "type": "address"
        },
        {
          "indexed": true,
          "name": "operator",
          "type": "address"
        },
        {
          "indexed": false,
          "name": "isApproved",
          "type": "bool"
        }
      ],
      "name": "ApprovalForAll",
      "type": "event",
      "signature": "0x17307eab39ab6107e8899845ad3d59bd9653f200f220920489ca2b5937696c31"
    },
    {
      "anonymous": false,
      "inputs": [
        {
          "indexed": true,
          "name": "account",
          "type": "address"
        }
      ],
      "name": "Paused",
      "type": "event",
      "signature": "0x62e78cea01bee320cd4e420270b5ea74000d11b0c9f74754ebdbfc544b05a258"
    },
    {
      "anonymous": false,
      "inputs": [
        {
          "indexed": true,
          "name": "account",
          "type": "address"
        }
      ],
      "name": "UnPaused",
      "type": "event",
      "signature": "0xff2b959f2bcdb44c7ecb4b16dae055431019d7350607125cfc2b74a06632c90e"
    },
    {
      "anonymous": false,
      "inputs": [
        {
          "indexed": true,
          "name": "previousOwner",
          "type": "address"
        },
        {
          "indexed": true,
          "name": "newOwnerAddress",
          "type": "address"
        }
      ],
      "name": "TransferredOwnership",
      "type": "event",
      "signature": "0x850b3df64837d7d518b45f5aa64d104652c3b80eb5b34a8e3d9eb666cb7cdea5"
    },
    {
      "constant": false,
      "inputs": [
        {
          "name": "userAddr",
          "type": "address"
        },
        {
          "name": "token_id",
          "type": "uint256"
        },
        {
          "name": "a",
          "type": "uint256[2]"
        },
        {
          "name": "b",
          "type": "uint256[2][2]"
        },
        {
          "name": "c",
          "type": "uint256[2]"
        },
        {
          "name": "input",
          "type": "uint256[2]"
        }
      ],
      "name": "addSolution",
      "outputs": [],
      "payable": false,
      "stateMutability": "nonpayable",
      "type": "function",
      "signature": "0x3eec14da"
    },
    {
      "constant": false,
      "inputs": [
        {
          "name": "to",
          "type": "address"
        },
        {
          "name": "token_id",
          "type": "uint256"
        }
      ],
      "name": "mint",
      "outputs": [
        {
          "name": "",
          "type": "bool"
        }
      ],
      "payable": false,
      "stateMutability": "nonpayable",
      "type": "function",
      "signature": "0x40c10f19"
    }
  ],
  "bytecode": "0x60806040526040518060400160405280600b81526020017f477265617420546f6b656e0000000000000000000000000000000000000000008152506040518060400160405280600381526020017f47525400000000000000000000000000000000000000000000000000000000008152506040518060600160405280603f8152602001620048dd603f9139336000806101000a81548173ffffffffffffffffffffffffffffffffffffffff021916908373ffffffffffffffffffffffffffffffffffffffff16021790555060008060146101000a81548160ff021916908315150217905550620001216301ffc9a77c0100000000000000000000000000000000000000000000000000000000026200022c640100000000026401000000009004565b6200015e6380ac58cd7c0100000000000000000000000000000000000000000000000000000000026200022c640100000000026401000000009004565b6200019b63780e9d637c0100000000000000000000000000000000000000000000000000000000026200022c640100000000026401000000009004565b82600f9080519060200190620001b3929190620002ea565b508160109080519060200190620001cc929190620002ea565b508060119080519060200190620001e5929190620002ea565b5062000223635b5e139f7c0100000000000000000000000000000000000000000000000000000000026200022c640100000000026401000000009004565b50505062000399565b63ffffffff7c010000000000000000000000000000000000000000000000000000000002817bffffffffffffffffffffffffffffffffffffffffffffffffffffffff1916141515156200027e57600080fd5b6001806000837bffffffffffffffffffffffffffffffffffffffffffffffffffffffff19167bffffffffffffffffffffffffffffffffffffffffffffffffffffffff1916815260200190815260200160002060006101000a81548160ff02191690831515021790555050565b828054600181600116156101000203166002900490600052602060002090601f016020900481019282601f106200032d57805160ff19168380011785556200035e565b828001600101855582156200035e579182015b828111156200035d57825182559160200191906001019062000340565b5b5090506200036d919062000371565b5090565b6200039691905b808211156200039257600081600090555060010162000378565b5090565b90565b61453480620003a96000396000f3fe608060405234801561001057600080fd5b5060043610610190576000357c01000000000000000000000000000000000000000000000000000000009004806342842e0e116100fb57806395d89b41116100b4578063c87b56dd1161008e578063c87b56dd14610d7a578063d547cfb714610e21578063e985e9c514610ea4578063f2fde38b14610f2057610190565b806395d89b4114610ba2578063a22cb46514610c25578063b88d4fde14610c7557610190565b806342842e0e146108695780634f6ccce7146108d7578063621e9ec0146109195780636352211e14610a9257806370a0823114610b005780638da5cb5b14610b5857610190565b806323b872dd1161014d57806323b872dd1461038757806327dc297e146103f55780632f745c59146104ba57806338bbfa501461051c5780633eec14da1461067857806340c10f191461080357610190565b806301ffc9a71461019557806306fdde03146101fa578063081812fc1461027d578063095ea7b3146102eb57806316c38b3c1461033957806318160ddd14610369575b600080fd5b6101e0600480360360208110156101ab57600080fd5b8101908080357bffffffffffffffffffffffffffffffffffffffffffffffffffffffff19169060200190929190505050610f64565b604051808215151515815260200191505060405180910390f35b610202610fcc565b6040518080602001828103825283818151815260200191508051906020019080838360005b83811015610242578082015181840152602081019050610227565b50505050905090810190601f16801561026f5780820380516001836020036101000a031916815260200191505b509250505060405180910390f35b6102a96004803603602081101561029357600080fd5b810190808035906020019092919050505061106e565b604051808273ffffffffffffffffffffffffffffffffffffffff1673ffffffffffffffffffffffffffffffffffffffff16815260200191505060405180910390f35b6103376004803603604081101561030157600080fd5b81019080803573ffffffffffffffffffffffffffffffffffffffff169060200190929190803590602001909291905050506110ab565b005b6103676004803603602081101561034f57600080fd5b81019080803515159060200190929190505050611343565b005b610371611524565b6040518082815260200191505060405180910390f35b6103f36004803603606081101561039d57600080fd5b81019080803573ffffffffffffffffffffffffffffffffffffffff169060200190929190803573ffffffffffffffffffffffffffffffffffffffff16906020019092919080359060200190929190505050611531565b005b6104b86004803603604081101561040b57600080fd5b81019080803590602001909291908035906020019064010000000081111561043257600080fd5b82018360208201111561044457600080fd5b8035906020019184600183028401116401000000008311171561046657600080fd5b91908080601f016020809104026020016040519081016040528093929190818152602001838380828437600081840152601f19601f820116905080830192505050505050509192919290505050611556565b005b610506600480360360408110156104d057600080fd5b81019080803573ffffffffffffffffffffffffffffffffffffffff16906020019092919080359060200190929190505050611599565b6040518082815260200191505060405180910390f35b6106766004803603606081101561053257600080fd5b81019080803590602001909291908035906020019064010000000081111561055957600080fd5b82018360208201111561056b57600080fd5b8035906020019184600183028401116401000000008311171561058d57600080fd5b91908080601f016020809104026020016040519081016040528093929190818152602001838380828437600081840152601f19601f820116905080830192505050505050509192919290803590602001906401000000008111156105f057600080fd5b82018360208201111561060257600080fd5b8035906020019184600183028401116401000000008311171561062457600080fd5b91908080601f016020809104026020016040519081016040528093929190818152602001838380828437600081840152601f19601f820116905080830192505050505050509192919290505050611610565b005b610801600480360361018081101561068f57600080fd5b81019080803573ffffffffffffffffffffffffffffffffffffffff1690602001909291908035906020019092919080604001906002806020026040519081016040528092919082600260200280828437600081840152601f19601f82011690508083019250505050505091929192908060800190600280602002604051908101604052809291906000905b8282101561076e578382604002016002806020026040519081016040528092919082600260200280828437600081840152601f19601f8201169050808301925050505050508152602001906001019061071a565b50505050919291929080604001906002806020026040519081016040528092919082600260200280828437600081840152601f19601f820116905080830192505050505050919291929080604001906002806020026040519081016040528092919082600260200280828437600081840152601f19601f8201169050808301925050505050509192919290505050611615565b005b61084f6004803603604081101561081957600080fd5b81019080803573ffffffffffffffffffffffffffffffffffffffff169060200190929190803590602001909291905050506118c0565b604051808215151515815260200191505060405180910390f35b6108d56004803603606081101561087f57600080fd5b81019080803573ffffffffffffffffffffffffffffffffffffffff169060200190929190803573ffffffffffffffffffffffffffffffffffffffff169060200190929190803590602001909291905050506118d4565b005b610903600480360360208110156108ed57600080fd5b81019080803590602001909291905050506118f4565b6040518082815260200191505060405180910390f35b610a78600480360361014081101561093057600080fd5b8101908080604001906002806020026040519081016040528092919082600260200280828437600081840152601f19601f82011690508083019250505050505091929192908060800190600280602002604051908101604052809291906000905b828210156109e5578382604002016002806020026040519081016040528092919082600260200280828437600081840152601f19601f82011690508083019250505050505081526020019060010190610991565b50505050919291929080604001906002806020026040519081016040528092919082600260200280828437600081840152601f19601f820116905080830192505050505050919291929080604001906002806020026040519081016040528092919082600260200280828437600081840152601f19601f820116905080830192505050505050919291929050505061192c565b604051808215151515815260200191505060405180910390f35b610abe60048036036020811015610aa857600080fd5b8101908080359060200190929190505050611b46565b604051808273ffffffffffffffffffffffffffffffffffffffff1673ffffffffffffffffffffffffffffffffffffffff16815260200191505060405180910390f35b610b4260048036036020811015610b1657600080fd5b81019080803573ffffffffffffffffffffffffffffffffffffffff169060200190929190505050611b83565b6040518082815260200191505060405180910390f35b610b60611bd3565b604051808273ffffffffffffffffffffffffffffffffffffffff1673ffffffffffffffffffffffffffffffffffffffff16815260200191505060405180910390f35b610baa611bfc565b6040518080602001828103825283818151815260200191508051906020019080838360005b83811015610bea578082015181840152602081019050610bcf565b50505050905090810190601f168015610c175780820380516001836020036101000a031916815260200191505b509250505060405180910390f35b610c7360048036036040811015610c3b57600080fd5b81019080803573ffffffffffffffffffffffffffffffffffffffff169060200190929190803515159060200190929190505050611c9e565b005b610d7860048036036080811015610c8b57600080fd5b81019080803573ffffffffffffffffffffffffffffffffffffffff169060200190929190803573ffffffffffffffffffffffffffffffffffffffff1690602001909291908035906020019092919080359060200190640100000000811115610cf257600080fd5b820183602082011115610d0457600080fd5b80359060200191846001830284011164010000000083111715610d2657600080fd5b91908080601f016020809104026020016040519081016040528093929190818152602001838380828437600081840152601f19601f820116905080830192505050505050509192919290505050611dda565b005b610da660048036036020811015610d9057600080fd5b8101908080359060200190929190505050611e02565b6040518080602001828103825283818151815260200191508051906020019080838360005b83811015610de6578082015181840152602081019050610dcb565b50505050905090810190601f168015610e135780820380516001836020036101000a031916815260200191505b509250505060405180910390f35b610e29611ecb565b6040518080602001828103825283818151815260200191508051906020019080838360005b83811015610e69578082015181840152602081019050610e4e565b50505050905090810190601f168015610e965780820380516001836020036101000a031916815260200191505b509250505060405180910390f35b610f0660048036036040811015610eba57600080fd5b81019080803573ffffffffffffffffffffffffffffffffffffffff169060200190929190803573ffffffffffffffffffffffffffffffffffffffff169060200190929190505050611f6d565b604051808215151515815260200191505060405180910390f35b610f6260048036036020811015610f3657600080fd5b81019080803573ffffffffffffffffffffffffffffffffffffffff169060200190929190505050612001565b005b600060016000837bffffffffffffffffffffffffffffffffffffffffffffffffffffffff19167bffffffffffffffffffffffffffffffffffffffffffffffffffffffff1916815260200190815260200160002060009054906101000a900460ff169050919050565b6060600f8054600181600116156101000203166002900480601f0160208091040260200160405190810160405280929190818152602001828054600181600116156101000203166002900480156110645780601f1061103957610100808354040283529160200191611064565b820191906000526020600020905b81548152906001019060200180831161104757829003601f168201915b5050505050905090565b60006003600083815260200190815260200160002060009054906101000a900473ffffffffffffffffffffffffffffffffffffffff169050919050565b3373ffffffffffffffffffffffffffffffffffffffff168273ffffffffffffffffffffffffffffffffffffffff1614151515611132576040517f08c379a00000000000000000000000000000000000000000000000000000000081526004018080602001828103825260278152602001806144be6027913960400191505060405180910390fd5b3373ffffffffffffffffffffffffffffffffffffffff163073ffffffffffffffffffffffffffffffffffffffff16636352211e836040518263ffffffff167c01000000000000000000000000000000000000000000000000000000000281526004018082815260200191505060206040518083038186803b1580156111b657600080fd5b505afa1580156111ca573d6000803e3d6000fd5b505050506040513d60208110156111e057600080fd5b810190808051906020019092919050505073ffffffffffffffffffffffffffffffffffffffff1614151561125f576040517f08c379a000000000000000000000000000000000000000000000000000000000815260040180806020018281038252602381526020018061449b6023913960400191505060405180910390fd5b816003600083815260200190815260200160002060006101000a81548173ffffffffffffffffffffffffffffffffffffffff021916908373ffffffffffffffffffffffffffffffffffffffff160217905550808273ffffffffffffffffffffffffffffffffffffffff166002600084815260200190815260200160002060009054906101000a900473ffffffffffffffffffffffffffffffffffffffff1673ffffffffffffffffffffffffffffffffffffffff167f8c5be1e5ebec7d5bd14f71427d1e84f3dd0314c0f7b2291e5b200ac8c7c3b92560405160405180910390a45050565b6000809054906101000a900473ffffffffffffffffffffffffffffffffffffffff1673ffffffffffffffffffffffffffffffffffffffff163373ffffffffffffffffffffffffffffffffffffffff16141515611407576040517f08c379a00000000000000000000000000000000000000000000000000000000081526004018080602001828103825260168152602001807f796f755f6172655f6e6f745f617574686f72697a65640000000000000000000081525060200191505060405180910390fd5b801515600060149054906101000a900460ff16151514151515611475576040517f08c379a00000000000000000000000000000000000000000000000000000000081526004018080602001828103825260248152602001806144e56024913960400191505060405180910390fd5b80600060146101000a81548160ff02191690831515021790555080156114dd573373ffffffffffffffffffffffffffffffffffffffff167f62e78cea01bee320cd4e420270b5ea74000d11b0c9f74754ebdbfc544b05a25860405160405180910390a2611521565b3373ffffffffffffffffffffffffffffffffffffffff167fff2b959f2bcdb44c7ecb4b16dae055431019d7350607125cfc2b74a06632c90e60405160405180910390a25b50565b6000600880549050905090565b61153b3382612207565b151561154657600080fd5b61155183838361229c565b505050565b611595828260006040519080825280601f01601f19166020018201604052801561158f5781602001600182028038833980820191505090505b50611610565b5050565b60006115a483611b83565b821015156115b157600080fd5b600660008473ffffffffffffffffffffffffffffffffffffffff1673ffffffffffffffffffffffffffffffffffffffff168152602001908152602001600020828154811015156115fd57fe5b9060005260206000200154905092915050565b505050565b6000611623858585856122c0565b90506014600082815260200190815260200160002060009054906101000a900460ff161515156116bb576040517f08c379a00000000000000000000000000000000000000000000000000000000081526004018080602001828103825260178152602001807f736f6c7574696f6e5f616c72656164795f65786973747300000000000000000081525060200191505060405180910390fd5b60006116c98686868661192c565b9050801515611740576040517f08c379a000000000000000000000000000000000000000000000000000000000815260040180806020018281038252600d8152602001807f696e76616c69645f70726f6f660000000000000000000000000000000000000081525060200191505060405180910390fd5b611748614228565b60405180608001604052806001151581526020018481526020018a73ffffffffffffffffffffffffffffffffffffffff16815260200189815250905080601360008a815260200190815260200160002060008201518160000160006101000a81548160ff0219169083151502179055506020820151816001015560408201518160020160006101000a81548173ffffffffffffffffffffffffffffffffffffffff021916908373ffffffffffffffffffffffffffffffffffffffff1602179055506060820151816003015590505060016014600085815260200190815260200160002060006101000a81548160ff0219169083151502179055507fd54d9ef5d3801dc9b4c79ac9cb0d5ed3b9c83d168bd86bb6e937ca7df70392da838a8a604051808481526020018373ffffffffffffffffffffffffffffffffffffffff1673ffffffffffffffffffffffffffffffffffffffff168152602001828152602001935050505060405180910390a1505050505050505050565b60006118cc83836123ce565b905092915050565b6118ef83838360405180602001604052806000815250611dda565b505050565b60006118fe611524565b8210151561190b57600080fd5b60088281548110151561191a57fe5b90600052602060002001549050919050565b600061193661426b565b604051806040016040528087600060028110151561195057fe5b6020020151815260200187600160028110151561196957fe5b602002015181525081600001819052506040518060400160405280604051806040016040528088600060028110151561199e57fe5b602002015160006002811015156119b157fe5b602002015181526020018860006002811015156119ca57fe5b602002015160016002811015156119dd57fe5b602002015181525081526020016040518060400160405280886001600281101515611a0457fe5b60200201516000600281101515611a1757fe5b60200201518152602001886001600281101515611a3057fe5b60200201516001600281101515611a4357fe5b602002015181525081525081602001819052506040518060400160405280856000600281101515611a7057fe5b60200201518152602001856001600281101515611a8957fe5b6020020151815250816040018190525060606002604051908082528060200260200182016040528015611acb5781602001602082028038833980820191505090505b50905060008090505b6002811015611b19578481600281101515611aeb57fe5b60200201518282815181101515611afe57fe5b90602001906020020181815250508080600101915050611ad4565b506000611b2682846124b1565b1415611b3757600192505050611b3e565b6000925050505b949350505050565b60006002600083815260200190815260200160002060009054906101000a900473ffffffffffffffffffffffffffffffffffffffff169050919050565b6000611bcc600460008473ffffffffffffffffffffffffffffffffffffffff1673ffffffffffffffffffffffffffffffffffffffff168152602001908152602001600020612639565b9050919050565b60008060009054906101000a900473ffffffffffffffffffffffffffffffffffffffff16905090565b606060108054600181600116156101000203166002900480601f016020809104026020016040519081016040528092919081815260200182805460018160011615610100020316600290048015611c945780601f10611c6957610100808354040283529160200191611c94565b820191906000526020600020905b815481529060010190602001808311611c7757829003601f168201915b5050505050905090565b3373ffffffffffffffffffffffffffffffffffffffff168273ffffffffffffffffffffffffffffffffffffffff1614151515611cd957600080fd5b80600560003373ffffffffffffffffffffffffffffffffffffffff1673ffffffffffffffffffffffffffffffffffffffff16815260200190815260200160002060008473ffffffffffffffffffffffffffffffffffffffff1673ffffffffffffffffffffffffffffffffffffffff16815260200190815260200160002060006101000a81548160ff0219169083151502179055508173ffffffffffffffffffffffffffffffffffffffff163373ffffffffffffffffffffffffffffffffffffffff167f17307eab39ab6107e8899845ad3d59bd9653f200f220920489ca2b5937696c3183604051808215151515815260200191505060405180910390a35050565b611de5848484611531565b611df184848484612647565b1515611dfc57600080fd5b50505050565b6060611e0d8261286a565b1515611e1857600080fd5b601260008381526020019081526020016000208054600181600116156101000203166002900480601f016020809104026020016040519081016040528092919081815260200182805460018160011615610100020316600290048015611ebf5780601f10611e9457610100808354040283529160200191611ebf565b820191906000526020600020905b815481529060010190602001808311611ea257829003601f168201915b50505050509050919050565b606060118054600181600116156101000203166002900480601f016020809104026020016040519081016040528092919081815260200182805460018160011615610100020316600290048015611f635780601f10611f3857610100808354040283529160200191611f63565b820191906000526020600020905b815481529060010190602001808311611f4657829003601f168201915b5050505050905090565b6000600560008473ffffffffffffffffffffffffffffffffffffffff1673ffffffffffffffffffffffffffffffffffffffff16815260200190815260200160002060008373ffffffffffffffffffffffffffffffffffffffff1673ffffffffffffffffffffffffffffffffffffffff16815260200190815260200160002060009054906101000a900460ff16905092915050565b6000809054906101000a900473ffffffffffffffffffffffffffffffffffffffff1673ffffffffffffffffffffffffffffffffffffffff163373ffffffffffffffffffffffffffffffffffffffff161415156120c5576040517f08c379a00000000000000000000000000000000000000000000000000000000081526004018080602001828103825260168152602001807f796f755f6172655f6e6f745f617574686f72697a65640000000000000000000081525060200191505060405180910390fd5b600073ffffffffffffffffffffffffffffffffffffffff168173ffffffffffffffffffffffffffffffffffffffff161415151561216a576040517f08c379a000000000000000000000000000000000000000000000000000000000815260040180806020018281038252600f8152602001807f696e76616c69645f61646472657373000000000000000000000000000000000081525060200191505060405180910390fd5b806000806101000a81548173ffffffffffffffffffffffffffffffffffffffff021916908373ffffffffffffffffffffffffffffffffffffffff1602179055508073ffffffffffffffffffffffffffffffffffffffff163373ffffffffffffffffffffffffffffffffffffffff167f850b3df64837d7d518b45f5aa64d104652c3b80eb5b34a8e3d9eb666cb7cdea560405160405180910390a350565b60008061221383611b46565b90508073ffffffffffffffffffffffffffffffffffffffff168473ffffffffffffffffffffffffffffffffffffffff16148061228257508373ffffffffffffffffffffffffffffffffffffffff1661226a8461106e565b73ffffffffffffffffffffffffffffffffffffffff16145b8061229357506122928185611f6d565b5b91505092915050565b6122a78383836128dc565b6122b18382612b75565b6122bb8282612d19565b505050565b6000848484846040516020018085600260200280838360005b838110156122f45780820151818401526020810190506122d9565b505050509050018460026000925b818410156123485782846020020151600260200280838360005b8381101561233757808201518184015260208101905061231c565b505050509050019260010192612302565b9250505083600260200280838360005b83811015612373578082015181840152602081019050612358565b5050505090500182600260200280838360005b838110156123a1578082015181840152602081019050612386565b50505050905001945050505050604051602081830303815290604052805190602001209050949350505050565b60008060009054906101000a900473ffffffffffffffffffffffffffffffffffffffff1673ffffffffffffffffffffffffffffffffffffffff163373ffffffffffffffffffffffffffffffffffffffff16141515612494576040517f08c379a00000000000000000000000000000000000000000000000000000000081526004018080602001828103825260168152602001807f796f755f6172655f6e6f745f617574686f72697a65640000000000000000000081525060200191505060405180910390fd5b61249e8383612de0565b6124a782612e01565b6001905092915050565b6000807f30644e72e131a029b85045b68181585d2833e84879b9709143e1f593f000000190506124df61429f565b6124e7612f54565b9050806080015151600186510114151561250057600080fd5b6125086142e7565b6040518060400160405280600081526020016000815250905060008090505b86518110156125ac5783878281518110151561253f57fe5b9060200190602002015110151561255557600080fd5b61259d8261259885608001516001850181518110151561257157fe5b906020019060200201518a8581518110151561258957fe5b906020019060200201516133ad565b613447565b91508080600101915050612527565b506125d381836080015160008151811015156125c457fe5b90602001906020020151613447565b9050612619856000015186602001516125eb84613502565b85604001516125fd8a60400151613502565b876060015161260f8960000151613502565b896020015161359e565b151561262b5760019350505050612633565b600093505050505b92915050565b600081600001549050919050565b60006126688473ffffffffffffffffffffffffffffffffffffffff16613722565b15156126775760019050612862565b60008473ffffffffffffffffffffffffffffffffffffffff1663150b7a02338887876040518563ffffffff167c0100000000000000000000000000000000000000000000000000000000028152600401808573ffffffffffffffffffffffffffffffffffffffff1673ffffffffffffffffffffffffffffffffffffffff1681526020018473ffffffffffffffffffffffffffffffffffffffff1673ffffffffffffffffffffffffffffffffffffffff16815260200183815260200180602001828103825283818151815260200191508051906020019080838360005b8381101561276e578082015181840152602081019050612753565b50505050905090810190601f16801561279b5780820380516001836020036101000a031916815260200191505b5095505050505050602060405180830381600087803b1580156127bd57600080fd5b505af11580156127d1573d6000803e3d6000fd5b505050506040513d60208110156127e757600080fd5b8101908080519060200190929190505050905063150b7a027c0100000000000000000000000000000000000000000000000000000000027bffffffffffffffffffffffffffffffffffffffffffffffffffffffff1916817bffffffffffffffffffffffffffffffffffffffffffffffffffffffff1916149150505b949350505050565b6000806002600084815260200190815260200160002060009054906101000a900473ffffffffffffffffffffffffffffffffffffffff169050600073ffffffffffffffffffffffffffffffffffffffff168173ffffffffffffffffffffffffffffffffffffffff161415915050919050565b6128e581611b46565b73ffffffffffffffffffffffffffffffffffffffff168373ffffffffffffffffffffffffffffffffffffffff16141515612987576040517f08c379a000000000000000000000000000000000000000000000000000000000815260040180806020018281038252600c8152602001807f756e617574686f72697a6564000000000000000000000000000000000000000081525060200191505060405180910390fd5b600073ffffffffffffffffffffffffffffffffffffffff168273ffffffffffffffffffffffffffffffffffffffff1614151515612a2c576040517f08c379a000000000000000000000000000000000000000000000000000000000815260040180806020018281038252600f8152602001807f696e76616c69645f61646472657373000000000000000000000000000000000081525060200191505060405180910390fd5b612a3581613735565b612a7c600460008573ffffffffffffffffffffffffffffffffffffffff1673ffffffffffffffffffffffffffffffffffffffff1681526020019081526020016000206137f5565b612ac3600460008473ffffffffffffffffffffffffffffffffffffffff1673ffffffffffffffffffffffffffffffffffffffff168152602001908152602001600020613818565b816002600083815260200190815260200160002060006101000a81548173ffffffffffffffffffffffffffffffffffffffff021916908373ffffffffffffffffffffffffffffffffffffffff160217905550808273ffffffffffffffffffffffffffffffffffffffff168473ffffffffffffffffffffffffffffffffffffffff167fddf252ad1be2c89b69c2b068fc378daa952ba7f163c4a11628f55a4df523b3ef60405160405180910390a4505050565b6000612bcd6001600660008673ffffffffffffffffffffffffffffffffffffffff1673ffffffffffffffffffffffffffffffffffffffff1681526020019081526020016000208054905061382e90919063ffffffff16565b90506000600760008481526020019081526020016000205490508181141515612cc0576000600660008673ffffffffffffffffffffffffffffffffffffffff1673ffffffffffffffffffffffffffffffffffffffff16815260200190815260200160002083815481101515612c3e57fe5b9060005260206000200154905080600660008773ffffffffffffffffffffffffffffffffffffffff1673ffffffffffffffffffffffffffffffffffffffff16815260200190815260200160002083815481101515612c9857fe5b9060005260206000200181905550816007600083815260200190815260200160002081905550505b600660008573ffffffffffffffffffffffffffffffffffffffff1673ffffffffffffffffffffffffffffffffffffffff168152602001908152602001600020805480919060019003612d129190614301565b5050505050565b600660008373ffffffffffffffffffffffffffffffffffffffff1673ffffffffffffffffffffffffffffffffffffffff168152602001908152602001600020805490506007600083815260200190815260200160002081905550600660008373ffffffffffffffffffffffffffffffffffffffff1673ffffffffffffffffffffffffffffffffffffffff1681526020019081526020016000208190806001815401808255809150509060018203906000526020600020016000909192909190915055505050565b612dea8282613850565b612df48282612d19565b612dfd81613993565b5050565b612e0a8161286a565b1515612e7e576040517f08c379a00000000000000000000000000000000000000000000000000000000081526004018080602001828103825260148152602001807f546f6b656e20646f6573206e6f7420657869737400000000000000000000000081525060200191505060405180910390fd5b612f2a60118054600181600116156101000203166002900480601f016020809104026020016040519081016040528092919081815260200182805460018160011615610100020316600290048015612f175780601f10612eec57610100808354040283529160200191612f17565b820191906000526020600020905b815481529060010190602001808311612efa57829003601f168201915b5050505050612f25836139df565b613b38565b601260008381526020019081526020016000209080519060200190612f5092919061432d565b5050565b612f5c61429f565b60405180604001604052807f1936c240636390dc823e3a728e94b208eb53c6756d81da57ec3425e05d43ac1081526020017f2d70ff78e8216bf29d58923a686d9738278b8ce2fd822e197c85b09286d155668152508160000181905250604051806040016040528060405180604001604052807f2b4daf047abe2e7f0b311118c1b963b63695dc0d769cea78849604434de055bf81526020017f29c13ecb6f33dbc4b3b8a02e2e255511ce4c26a8a2f299efcc94caf2de4fce00815250815260200160405180604001604052807f1da9020008df7f549751f8a251af3b2dc4a2ad3e0870de54acaedd9fc1b47e1781526020017f25ea0d7e2b29de431b86a943db30dbf4d98f68df9ca8a9628d14d1591e817d908152508152508160200181905250604051806040016040528060405180604001604052807f011016e22ae045444f50fb80f246ec486c7e02af09132cd38c4fcf484983e4f281526020017ee83c788c2878d1d5eba3ed49b0d81e4c0487dedc3e4d1c2baab5833785b62f815250815260200160405180604001604052807f05eb89e741ed5b5d611cebf92d1ed02cd6f3311089f0d400df7d9ced5a48fd4181526020017f132a90a3b0d369ccd66e2a5ba04a935e44d8ad5dca93a76bba592a578130a9118152508152508160400181905250604051806040016040528060405180604001604052807f065f6a3323a2abffd621fc263f348eb914904b68d5897729ae34a6b9d33f085281526020017f0c3b60f59d3bd50328a04c0ff6d979199685d0526f89f6ac29d6174ce24707a2815250815260200160405180604001604052807f26e7ebce2b44efef6b6315938e33f0a8ecc82dbad635c9efa681ed85bbb5998281526020017f12e0f3721230a0f38f6c9913048d5230fd2615ef3ff7f6ee4b20dfe0bdea1a868152508152508160600181905250600360405190808252806020026020018201604052801561324257816020015b61322f6143ad565b8152602001906001900390816132275790505b50816080018190525060405180604001604052807f1ef8d5d70234aa3e3d8fc4e3f1ca01c703182580b581106798f05b35fd5082c081526020017f2e468046d4ae35138e2032224925d5389712e5ca5e68f4d9c1e1858e7d65602d815250816080015160008151811015156132b357fe5b9060200190602002018190525060405180604001604052807f0cefae0e3fa6aa25a4485ab7b21d32794d3431a4e4a5ca82ea427b831534c2c981526020017f23e3d2035b70884e547638b111870f5957f58ad8068f7a21470164ad361e1e888152508160800151600181518110151561332857fe5b9060200190602002018190525060405180604001604052807f030ffe78ec3de150e8688db619bde78e21e894754e6be5ed83742677628b24bc81526020017f053392f88cfa9092dfbc0bd199d8159e56207779473c24fc601eff91bcd345ca8152508160800151600281518110151561339d57fe5b9060200190602002018190525090565b6133b56142e7565b6133bd6143c7565b83600001518160006003811015156133d157fe5b60200201818152505083602001518160016003811015156133ee57fe5b6020020181815250508281600260038110151561340757fe5b602002018181525050600060608360808460076107d05a03fa9050806000811461343057613432565bfe5b5080151561343f57600080fd5b505092915050565b61344f6142e7565b6134576143e9565b836000015181600060048110151561346b57fe5b602002018181525050836020015181600160048110151561348857fe5b60200201818152505082600001518160026004811015156134a557fe5b60200201818152505082602001518160036004811015156134c257fe5b602002018181525050600060608360c08460066107d05a03fa905080600081146134eb576134ed565bfe5b508015156134fa57600080fd5b505092915050565b61350a6142e7565b60007f30644e72e131a029b85045b68181585d97816a916871ca8d3c208c16d87cfd47905060008360000151148015613547575060008360200151145b1561356b576040518060400160405280600081526020016000815250915050613599565b60405180604001604052808460000151815260200182856020015181151561358f57fe5b0683038152509150505b919050565b6000606060046040519080825280602002602001820160405280156135dd57816020015b6135ca6143ad565b8152602001906001900390816135c25790505b5090506060600460405190808252806020026020018201604052801561361d57816020015b61360a61440b565b8152602001906001900390816136025790505b5090508a82600081518110151561363057fe5b906020019060200201819052508882600181518110151561364d57fe5b906020019060200201819052508682600281518110151561366a57fe5b906020019060200201819052508482600381518110151561368757fe5b90602001906020020181905250898160008151811015156136a457fe5b90602001906020020181905250878160018151811015156136c157fe5b90602001906020020181905250858160028151811015156136de57fe5b90602001906020020181905250838160038151811015156136fb57fe5b906020019060200201819052506137128282613b7c565b9250505098975050505050505050565b600080823b905060008111915050919050565b600073ffffffffffffffffffffffffffffffffffffffff166003600083815260200190815260200160002060009054906101000a900473ffffffffffffffffffffffffffffffffffffffff1673ffffffffffffffffffffffffffffffffffffffff161415156137f25760006003600083815260200190815260200160002060006101000a81548173ffffffffffffffffffffffffffffffffffffffff021916908373ffffffffffffffffffffffffffffffffffffffff1602179055505b50565b61380d6001826000015461382e90919063ffffffff16565b816000018190555050565b6001816000016000828254019250508190555050565b600082821115151561383f57600080fd5b600082840390508091505092915050565b6138598161286a565b806138905750600073ffffffffffffffffffffffffffffffffffffffff168273ffffffffffffffffffffffffffffffffffffffff16145b1561389a57600080fd5b816002600083815260200190815260200160002060006101000a81548173ffffffffffffffffffffffffffffffffffffffff021916908373ffffffffffffffffffffffffffffffffffffffff160217905550613933600460008473ffffffffffffffffffffffffffffffffffffffff1673ffffffffffffffffffffffffffffffffffffffff168152602001908152602001600020613818565b808273ffffffffffffffffffffffffffffffffffffffff16600073ffffffffffffffffffffffffffffffffffffffff167fddf252ad1be2c89b69c2b068fc378daa952ba7f163c4a11628f55a4df523b3ef60405160405180910390a45050565b6008805490506009600083815260200190815260200160002081905550600881908060018154018082558091505090600182039060005260206000200160009091929091909150555050565b60606000821415613a27576040518060400160405280600181526020017f30000000000000000000000000000000000000000000000000000000000000008152509050613b33565b600082905060005b600082141515613a55578080600101915050600a82811515613a4d57fe5b049150613a2f565b6060816040519080825280601f01601f191660200182016040528015613a8a5781602001600182028038833980820191505090505b50905060006001830390505b600086141515613b2b57600a86811515613aac57fe5b066030017f010000000000000000000000000000000000000000000000000000000000000002828280600190039350815181101515613ae757fe5b9060200101907effffffffffffffffffffffffffffffffffffffffffffffffffffffffffffff1916908160001a905350600a86811515613b2357fe5b049550613a96565b819450505050505b919050565b6060613b748383604051806020016040528060008152506040518060200160405280600081525060405180602001604052806000815250613e0d565b905092915050565b600081518351141515613b8e57600080fd5b6000835190506000600682029050606081604051908082528060200260200182016040528015613bcd5781602001602082028038833980820191505090505b50905060008090505b83811015613dab578681815181101515613bec57fe5b90602001906020020151600001518260006006840201815181101515613c0e57fe5b90602001906020020181815250508681815181101515613c2a57fe5b90602001906020020151602001518260016006840201815181101515613c4c57fe5b90602001906020020181815250508581815181101515613c6857fe5b90602001906020020151600001516000600281101515613c8457fe5b60200201518260026006840201815181101515613c9d57fe5b90602001906020020181815250508581815181101515613cb957fe5b90602001906020020151600001516001600281101515613cd557fe5b60200201518260036006840201815181101515613cee57fe5b90602001906020020181815250508581815181101515613d0a57fe5b90602001906020020151602001516000600281101515613d2657fe5b60200201518260046006840201815181101515613d3f57fe5b90602001906020020181815250508581815181101515613d5b57fe5b90602001906020020151602001516001600281101515613d7757fe5b60200201518260056006840201815181101515613d9057fe5b90602001906020020181815250508080600101915050613bd6565b50613db4614431565b6000602082602086026020860160086107d05a03fa90508060008114613dd957613ddb565bfe5b50801515613de857600080fd5b6000826000600181101515613df957fe5b602002015114159550505050505092915050565b6060808690506060869050606086905060608690506060869050606081518351855187518951010101016040519080825280601f01601f191660200182016040528015613e695781602001600182028038833980820191505090505b509050606081905060008090506000809050600090505b8851811015613f33578881815181101515613e9757fe5b9060200101517f010000000000000000000000000000000000000000000000000000000000000090047f0100000000000000000000000000000000000000000000000000000000000000028383806001019450815181101515613ef657fe5b9060200101907effffffffffffffffffffffffffffffffffffffffffffffffffffffffffffff1916908160001a9053508080600101915050613e80565b600090505b8751811015613feb578781815181101515613f4f57fe5b9060200101517f010000000000000000000000000000000000000000000000000000000000000090047f0100000000000000000000000000000000000000000000000000000000000000028383806001019450815181101515613fae57fe5b9060200101907effffffffffffffffffffffffffffffffffffffffffffffffffffffffffffff1916908160001a9053508080600101915050613f38565b600090505b86518110156140a357868181518110151561400757fe5b9060200101517f010000000000000000000000000000000000000000000000000000000000000090047f010000000000000000000000000000000000000000000000000000000000000002838380600101945081518110151561406657fe5b9060200101907effffffffffffffffffffffffffffffffffffffffffffffffffffffffffffff1916908160001a9053508080600101915050613ff0565b600090505b855181101561415b5785818151811015156140bf57fe5b9060200101517f010000000000000000000000000000000000000000000000000000000000000090047f010000000000000000000000000000000000000000000000000000000000000002838380600101945081518110151561411e57fe5b9060200101907effffffffffffffffffffffffffffffffffffffffffffffffffffffffffffff1916908160001a90535080806001019150506140a8565b600090505b845181101561421357848181518110151561417757fe5b9060200101517f010000000000000000000000000000000000000000000000000000000000000090047f01000000000000000000000000000000000000000000000000000000000000000283838060010194508151811015156141d657fe5b9060200101907effffffffffffffffffffffffffffffffffffffffffffffffffffffffffffff1916908160001a9053508080600101915050614160565b82995050505050505050505095945050505050565b604051806080016040528060001515815260200160008019168152602001600073ffffffffffffffffffffffffffffffffffffffff168152602001600081525090565b60405180610100016040528061427f6143ad565b815260200161428c61440b565b81526020016142996143ad565b81525090565b604051806101e001604052806142b36143ad565b81526020016142c061440b565b81526020016142cd61440b565b81526020016142da61440b565b8152602001606081525090565b604051806040016040528060008152602001600081525090565b815481835581811115614328578183600052602060002091820191016143279190614453565b5b505050565b828054600181600116156101000203166002900490600052602060002090601f016020900481019282601f1061436e57805160ff191683800117855561439c565b8280016001018555821561439c579182015b8281111561439b578251825591602001919060010190614380565b5b5090506143a99190614453565b5090565b604051806040016040528060008152602001600081525090565b6040518060600160405280600390602082028038833980820191505090505090565b6040518060800160405280600490602082028038833980820191505090505090565b604051806080016040528061441e614478565b815260200161442b614478565b81525090565b6040518060200160405280600190602082028038833980820191505090505090565b61447591905b80821115614471576000816000905550600101614459565b5090565b90565b604051806040016040528060029060208202803883398082019150509050509056fe796f755f6172655f6e6f745f7468655f6f776e65725f6f665f746869735f746f6b656e796f755f63616e5f7472616e736665725f796f75725f746f6b656e5f746f5f796f757273656c666e65775f73746174655f69735f7468655f73616d655f61735f7468655f6f6c645f6f6e65a165627a7a7230582093a2208c31146d99104711f6ca9d717365a49059b2c9ca68c7adf8c37add3cff002968747470733a2f2f73332d75732d776573742d322e616d617a6f6e6177732e636f6d2f756461636974792d626c6f636b636861696e2f63617073746f6e652f",
  "source": "pragma solidity >=0.4.21 <0.6.0;\n\nimport \"./ERC721Mintable.sol\";\nimport \"./verifier.sol\";\n\ncontract SolnSquareVerifier is Verifier, GRToken {\n    struct Solution {\n        bool isAdded;\n        bytes32 index;\n        address userAddr;\n        uint256 token_id;\n    }\n\n    mapping(uint256 => Solution) solutionsMap;\n    mapping(bytes32 => bool) private existSolutionMap;\n    \n    event SolutionAdded(bytes32 key, address userAddr, uint256 token_id);\n\n    function addSolution(\n        address userAddr,\n        uint256 token_id,\n        uint256[2] memory a,\n        uint256[2][2] memory b,\n        uint256[2] memory c,\n        uint256[2] memory input\n    ) public {\n        bytes32 generatedKey = generateKey(a, b, c, input);\n        require(!existSolutionMap[generatedKey], \"solution_already_exists\");\n        bool isProofValid = verifyTx(a, b, c, input);\n        require(isProofValid, \"invalid_proof\");\n\n        Solution memory solutionObj = Solution({\n            isAdded: true,\n            index: generatedKey,\n            userAddr: userAddr,\n            token_id: token_id\n        });\n\n        solutionsMap[token_id] = solutionObj;\n        existSolutionMap[generatedKey] = true;\n        emit SolutionAdded(generatedKey, userAddr, token_id);\n    }\n\n    function generateKey(\n        uint256[2] memory a,\n        uint256[2][2] memory b,\n        uint256[2] memory c,\n        uint256[2] memory inputs\n    ) internal view returns (bytes32) {\n        return keccak256(abi.encodePacked(a, b, c, inputs));\n    }\n\n    function mint(address to, uint256 token_id) public returns (bool) {\n        return super.mint(to, token_id);\n    }\n}\n",
  "sourcePath": "/Users/parvezhassan/Downloads/Udacity/Blockchain-Capstone/eth-contracts/contracts/SolnSquareVerifier.sol",
  "compiler": {
    "name": "solc",
    "version": "0.5.5+commit.47a71e8f.Emscripten.clang"
  },
  "schemaVersion": "3.0.1",
  "updatedAt": "2022-06-01T15:32:27.185Z",
  "devdoc": {
    "methods": {}
  },
  "userdoc": {
    "methods": {}
  }
}